{
  "_format": "hh-sol-artifact-1",
  "contractName": "Marketplace",
  "sourceName": "contracts/Marketplace.sol",
  "address": "0xc09EC9D3D1D70170fCd447519F1eBBa0E73b2278",
  "abi": [
    {
      "inputs": [],
      "stateMutability": "nonpayable",
      "type": "constructor"
    },
    {
      "inputs": [
        {
          "internalType": "address",
          "name": "sender",
          "type": "address"
        },
        {
          "internalType": "uint256",
          "name": "tokenId",
          "type": "uint256"
        },
        {
          "internalType": "address",
          "name": "owner",
          "type": "address"
        }
      ],
      "name": "ERC721IncorrectOwner",
      "type": "error"
    },
    {
      "inputs": [
        {
          "internalType": "address",
          "name": "operator",
          "type": "address"
        },
        {
          "internalType": "uint256",
          "name": "tokenId",
          "type": "uint256"
        }
      ],
      "name": "ERC721InsufficientApproval",
      "type": "error"
    },
    {
      "inputs": [
        {
          "internalType": "address",
          "name": "approver",
          "type": "address"
        }
      ],
      "name": "ERC721InvalidApprover",
      "type": "error"
    },
    {
      "inputs": [
        {
          "internalType": "address",
          "name": "operator",
          "type": "address"
        }
      ],
      "name": "ERC721InvalidOperator",
      "type": "error"
    },
    {
      "inputs": [
        {
          "internalType": "address",
          "name": "owner",
          "type": "address"
        }
      ],
      "name": "ERC721InvalidOwner",
      "type": "error"
    },
    {
      "inputs": [
        {
          "internalType": "address",
          "name": "receiver",
          "type": "address"
        }
      ],
      "name": "ERC721InvalidReceiver",
      "type": "error"
    },
    {
      "inputs": [
        {
          "internalType": "address",
          "name": "sender",
          "type": "address"
        }
      ],
      "name": "ERC721InvalidSender",
      "type": "error"
    },
    {
      "inputs": [
        {
          "internalType": "uint256",
          "name": "tokenId",
          "type": "uint256"
        }
      ],
      "name": "ERC721NonexistentToken",
      "type": "error"
    },
    {
      "anonymous": false,
      "inputs": [
        {
          "indexed": true,
          "internalType": "address",
          "name": "owner",
          "type": "address"
        },
        {
          "indexed": true,
          "internalType": "address",
          "name": "approved",
          "type": "address"
        },
        {
          "indexed": true,
          "internalType": "uint256",
          "name": "tokenId",
          "type": "uint256"
        }
      ],
      "name": "Approval",
      "type": "event"
    },
    {
      "anonymous": false,
      "inputs": [
        {
          "indexed": true,
          "internalType": "address",
          "name": "owner",
          "type": "address"
        },
        {
          "indexed": true,
          "internalType": "address",
          "name": "operator",
          "type": "address"
        },
        {
          "indexed": false,
          "internalType": "bool",
          "name": "approved",
          "type": "bool"
        }
      ],
      "name": "ApprovalForAll",
      "type": "event"
    },
    {
      "anonymous": false,
      "inputs": [
        {
          "indexed": false,
          "internalType": "uint256",
          "name": "_fromTokenId",
          "type": "uint256"
        },
        {
          "indexed": false,
          "internalType": "uint256",
          "name": "_toTokenId",
          "type": "uint256"
        }
      ],
      "name": "BatchMetadataUpdate",
      "type": "event"
    },
    {
      "anonymous": false,
      "inputs": [
        {
          "indexed": false,
          "internalType": "uint256",
          "name": "_tokenId",
          "type": "uint256"
        }
      ],
      "name": "MetadataUpdate",
      "type": "event"
    },
    {
      "anonymous": false,
      "inputs": [
        {
          "indexed": true,
          "internalType": "address",
          "name": "from",
          "type": "address"
        },
        {
          "indexed": true,
          "internalType": "address",
          "name": "to",
          "type": "address"
        },
        {
          "indexed": true,
          "internalType": "uint256",
          "name": "tokenId",
          "type": "uint256"
        }
      ],
      "name": "Transfer",
      "type": "event"
    },
    {
      "inputs": [
        {
          "internalType": "address",
          "name": "to",
          "type": "address"
        },
        {
          "internalType": "uint256",
          "name": "tokenId",
          "type": "uint256"
        }
      ],
      "name": "approve",
      "outputs": [],
      "stateMutability": "nonpayable",
      "type": "function"
    },
    {
      "inputs": [
        {
          "internalType": "address",
          "name": "owner",
          "type": "address"
        }
      ],
      "name": "balanceOf",
      "outputs": [
        {
          "internalType": "uint256",
          "name": "",
          "type": "uint256"
        }
      ],
      "stateMutability": "view",
      "type": "function"
    },
    {
      "inputs": [],
      "name": "feePercent",
      "outputs": [
        {
          "internalType": "uint256",
          "name": "",
          "type": "uint256"
        }
      ],
      "stateMutability": "view",
      "type": "function"
    },
    {
      "inputs": [
        {
          "internalType": "uint256",
          "name": "tokenId",
          "type": "uint256"
        }
      ],
      "name": "getApproved",
      "outputs": [
        {
          "internalType": "address",
          "name": "",
          "type": "address"
        }
      ],
      "stateMutability": "view",
      "type": "function"
    },
    {
      "inputs": [],
      "name": "getFeePercent",
      "outputs": [
        {
          "internalType": "uint256",
          "name": "",
          "type": "uint256"
        }
      ],
      "stateMutability": "view",
      "type": "function"
    },
    {
      "inputs": [
        {
          "internalType": "uint256",
          "name": "_tokenId",
          "type": "uint256"
        }
      ],
      "name": "getListingById",
      "outputs": [
        {
          "components": [
            {
              "internalType": "uint256",
              "name": "tokenId",
              "type": "uint256"
            },
            {
              "internalType": "address payable",
              "name": "currentOwner",
              "type": "address"
            },
            {
              "internalType": "address payable",
              "name": "creator",
              "type": "address"
            },
            {
              "internalType": "uint256",
              "name": "price",
              "type": "uint256"
            }
          ],
          "internalType": "struct Marketplace.Listing",
          "name": "",
          "type": "tuple"
        }
      ],
      "stateMutability": "view",
      "type": "function"
    },
    {
      "inputs": [],
      "name": "getTokenIdCounter",
      "outputs": [
        {
          "internalType": "uint256",
          "name": "",
          "type": "uint256"
        }
      ],
      "stateMutability": "view",
      "type": "function"
    },
    {
      "inputs": [],
      "name": "getUserNFTs",
      "outputs": [
        {
          "components": [
            {
              "internalType": "uint256",
              "name": "tokenId",
              "type": "uint256"
            },
            {
              "internalType": "address payable",
              "name": "currentOwner",
              "type": "address"
            },
            {
              "internalType": "address payable",
              "name": "creator",
              "type": "address"
            },
            {
              "internalType": "uint256",
              "name": "price",
              "type": "uint256"
            }
          ],
          "internalType": "struct Marketplace.Listing[]",
          "name": "",
          "type": "tuple[]"
        }
      ],
      "stateMutability": "view",
      "type": "function"
    },
    {
      "inputs": [
        {
          "internalType": "address",
          "name": "owner",
          "type": "address"
        },
        {
          "internalType": "address",
          "name": "operator",
          "type": "address"
        }
      ],
      "name": "isApprovedForAll",
      "outputs": [
        {
          "internalType": "bool",
          "name": "",
          "type": "bool"
        }
      ],
      "stateMutability": "view",
      "type": "function"
    },
    {
      "inputs": [],
      "name": "listAllNFTs",
      "outputs": [
        {
          "components": [
            {
              "internalType": "uint256",
              "name": "tokenId",
              "type": "uint256"
            },
            {
              "internalType": "address payable",
              "name": "currentOwner",
              "type": "address"
            },
            {
              "internalType": "address payable",
              "name": "creator",
              "type": "address"
            },
            {
              "internalType": "uint256",
              "name": "price",
              "type": "uint256"
            }
          ],
          "internalType": "struct Marketplace.Listing[]",
          "name": "",
          "type": "tuple[]"
        }
      ],
      "stateMutability": "view",
      "type": "function"
    },
    {
      "inputs": [],
      "name": "marketplaceOwner",
      "outputs": [
        {
          "internalType": "address payable",
          "name": "",
          "type": "address"
        }
      ],
      "stateMutability": "view",
      "type": "function"
    },
    {
      "inputs": [
        {
          "internalType": "string",
          "name": "_tokenURI",
          "type": "string"
        },
        {
          "internalType": "uint256",
          "name": "_price",
          "type": "uint256"
        }
      ],
      "name": "mintToken",
      "outputs": [
        {
          "internalType": "uint256",
          "name": "",
          "type": "uint256"
        }
      ],
      "stateMutability": "nonpayable",
      "type": "function"
    },
    {
      "inputs": [],
      "name": "name",
      "outputs": [
        {
          "internalType": "string",
          "name": "",
          "type": "string"
        }
      ],
      "stateMutability": "view",
      "type": "function"
    },
    {
      "inputs": [
        {
          "internalType": "uint256",
          "name": "tokenId",
          "type": "uint256"
        }
      ],
      "name": "ownerOf",
      "outputs": [
        {
          "internalType": "address",
          "name": "",
          "type": "address"
        }
      ],
      "stateMutability": "view",
      "type": "function"
    },
    {
      "inputs": [
        {
          "internalType": "uint256",
          "name": "_tokenId",
          "type": "uint256"
        }
      ],
      "name": "purchaseNFT",
      "outputs": [],
      "stateMutability": "payable",
      "type": "function"
    },
    {
      "inputs": [
        {
          "internalType": "address",
          "name": "from",
          "type": "address"
        },
        {
          "internalType": "address",
          "name": "to",
          "type": "address"
        },
        {
          "internalType": "uint256",
          "name": "tokenId",
          "type": "uint256"
        }
      ],
      "name": "safeTransferFrom",
      "outputs": [],
      "stateMutability": "nonpayable",
      "type": "function"
    },
    {
      "inputs": [
        {
          "internalType": "address",
          "name": "from",
          "type": "address"
        },
        {
          "internalType": "address",
          "name": "to",
          "type": "address"
        },
        {
          "internalType": "uint256",
          "name": "tokenId",
          "type": "uint256"
        },
        {
          "internalType": "bytes",
          "name": "data",
          "type": "bytes"
        }
      ],
      "name": "safeTransferFrom",
      "outputs": [],
      "stateMutability": "nonpayable",
      "type": "function"
    },
    {
      "inputs": [
        {
          "internalType": "address",
          "name": "operator",
          "type": "address"
        },
        {
          "internalType": "bool",
          "name": "approved",
          "type": "bool"
        }
      ],
      "name": "setApprovalForAll",
      "outputs": [],
      "stateMutability": "nonpayable",
      "type": "function"
    },
    {
      "inputs": [
        {
          "internalType": "uint256",
          "name": "_feePercent",
          "type": "uint256"
        }
      ],
      "name": "setFeePercent",
      "outputs": [],
      "stateMutability": "nonpayable",
      "type": "function"
    },
    {
      "inputs": [
        {
          "internalType": "bytes4",
          "name": "interfaceId",
          "type": "bytes4"
        }
      ],
      "name": "supportsInterface",
      "outputs": [
        {
          "internalType": "bool",
          "name": "",
          "type": "bool"
        }
      ],
      "stateMutability": "view",
      "type": "function"
    },
    {
      "inputs": [],
      "name": "symbol",
      "outputs": [
        {
          "internalType": "string",
          "name": "",
          "type": "string"
        }
      ],
      "stateMutability": "view",
      "type": "function"
    },
    {
      "inputs": [
        {
          "internalType": "uint256",
          "name": "tokenId",
          "type": "uint256"
        }
      ],
      "name": "tokenURI",
      "outputs": [
        {
          "internalType": "string",
          "name": "",
          "type": "string"
        }
      ],
      "stateMutability": "view",
      "type": "function"
    },
    {
      "inputs": [
        {
          "internalType": "address",
          "name": "from",
          "type": "address"
        },
        {
          "internalType": "address",
          "name": "to",
          "type": "address"
        },
        {
          "internalType": "uint256",
          "name": "tokenId",
          "type": "uint256"
        }
      ],
      "name": "transferFrom",
      "outputs": [],
      "stateMutability": "nonpayable",
      "type": "function"
    }
  ],
  "bytecode": "0x6080604052600a6008553480156200001657600080fd5b506040518060400160405280600b81526020017f4d61726b6574706c6163650000000000000000000000000000000000000000008152506040518060400160405280600281526020017f4d5000000000000000000000000000000000000000000000000000000000000081525081600090816200009491906200036a565b508060019081620000a691906200036a565b50505033600760006101000a81548173ffffffffffffffffffffffffffffffffffffffff021916908373ffffffffffffffffffffffffffffffffffffffff16021790555062000451565b600081519050919050565b7f4e487b7100000000000000000000000000000000000000000000000000000000600052604160045260246000fd5b7f4e487b7100000000000000000000000000000000000000000000000000000000600052602260045260246000fd5b600060028204905060018216806200017257607f821691505b6020821081036200018857620001876200012a565b5b50919050565b60008190508160005260206000209050919050565b60006020601f8301049050919050565b600082821b905092915050565b600060088302620001f27fffffffffffffffffffffffffffffffffffffffffffffffffffffffffffffffff82620001b3565b620001fe8683620001b3565b95508019841693508086168417925050509392505050565b6000819050919050565b6000819050919050565b60006200024b620002456200023f8462000216565b62000220565b62000216565b9050919050565b6000819050919050565b62000267836200022a565b6200027f620002768262000252565b848454620001c0565b825550505050565b600090565b6200029662000287565b620002a38184846200025c565b505050565b5b81811015620002cb57620002bf6000826200028c565b600181019050620002a9565b5050565b601f8211156200031a57620002e4816200018e565b620002ef84620001a3565b81016020851015620002ff578190505b620003176200030e85620001a3565b830182620002a8565b50505b505050565b600082821c905092915050565b60006200033f600019846008026200031f565b1980831691505092915050565b60006200035a83836200032c565b9150826002028217905092915050565b6200037582620000f0565b67ffffffffffffffff811115620003915762000390620000fb565b5b6200039d825462000159565b620003aa828285620002cf565b600060209050601f831160018114620003e25760008415620003cd578287015190505b620003d985826200034c565b86555062000449565b601f198416620003f2866200018e565b60005b828110156200041c57848901518255600182019150602085019450602081019050620003f5565b868310156200043c578489015162000438601f8916826200032c565b8355505b6001600288020188555050505b505050505050565b61372780620004616000396000f3fe6080604052600436106101405760003560e01c80637ce3489b116100b6578063be74264d1161006f578063be74264d1461045f578063c046372c1461048a578063c87b56dd146104c7578063dbfd4b9814610504578063e985e9c51461052f578063fdc5ab8e1461056c57610140565b80637ce3489b146103635780637fd6f15c1461038c57806381ebc2c8146103b757806395d89b41146103e2578063a22cb4651461040d578063b88d4fde1461043657610140565b806323b872dd1161010857806323b872dd1461022f57806342842e0e146102585780634f85310f146102815780636352211e146102be578063650025a0146102fb57806370a082311461032657610140565b806301ffc9a71461014557806306fdde0314610182578063081812fc146101ad578063095ea7b3146101ea578063150bde0314610213575b600080fd5b34801561015157600080fd5b5061016c6004803603810190610167919061271b565b610597565b6040516101799190612763565b60405180910390f35b34801561018e57600080fd5b506101976105f8565b6040516101a4919061280e565b60405180910390f35b3480156101b957600080fd5b506101d460048036038101906101cf9190612866565b61068a565b6040516101e191906128d4565b60405180910390f35b3480156101f657600080fd5b50610211600480360381019061020c919061291b565b6106a6565b005b61022d60048036038101906102289190612866565b6106bc565b005b34801561023b57600080fd5b506102566004803603810190610251919061295b565b6108b1565b005b34801561026457600080fd5b5061027f600480360381019061027a919061295b565b6109b3565b005b34801561028d57600080fd5b506102a860048036038101906102a39190612866565b6109d3565b6040516102b59190612a33565b60405180910390f35b3480156102ca57600080fd5b506102e560048036038101906102e09190612866565b610ac0565b6040516102f291906128d4565b60405180910390f35b34801561030757600080fd5b50610310610ad2565b60405161031d9190612a5d565b60405180910390f35b34801561033257600080fd5b5061034d60048036038101906103489190612a78565b610af8565b60405161035a9190612ab4565b60405180910390f35b34801561036f57600080fd5b5061038a60048036038101906103859190612866565b610bb2565b005b34801561039857600080fd5b506103a1610c4c565b6040516103ae9190612ab4565b60405180910390f35b3480156103c357600080fd5b506103cc610c52565b6040516103d99190612bd3565b60405180910390f35b3480156103ee57600080fd5b506103f7610dfe565b604051610404919061280e565b60405180910390f35b34801561041957600080fd5b50610434600480360381019061042f9190612c21565b610e90565b005b34801561044257600080fd5b5061045d60048036038101906104589190612d96565b610ea6565b005b34801561046b57600080fd5b50610474610ec3565b6040516104819190612ab4565b60405180910390f35b34801561049657600080fd5b506104b160048036038101906104ac9190612eba565b610ecd565b6040516104be9190612ab4565b60405180910390f35b3480156104d357600080fd5b506104ee60048036038101906104e99190612866565b610f58565b6040516104fb919061280e565b60405180910390f35b34801561051057600080fd5b5061051961106b565b6040516105269190612ab4565b60405180910390f35b34801561053b57600080fd5b5061055660048036038101906105519190612f16565b611075565b6040516105639190612763565b60405180910390f35b34801561057857600080fd5b50610581611109565b60405161058e9190612bd3565b60405180910390f35b6000634906490660e01b7bffffffffffffffffffffffffffffffffffffffffffffffffffffffff1916827bffffffffffffffffffffffffffffffffffffffffffffffffffffffff191614806105f157506105f0826114c3565b5b9050919050565b60606000805461060790612f85565b80601f016020809104026020016040519081016040528092919081815260200182805461063390612f85565b80156106805780601f1061065557610100808354040283529160200191610680565b820191906000526020600020905b81548152906001019060200180831161066357829003601f168201915b5050505050905090565b6000610695826115a5565b5061069f8261162d565b9050919050565b6106b882826106b361166a565b611672565b5050565b6000600b6000838152602001908152602001600020905060008160030154905060008260020160009054906101000a900473ffffffffffffffffffffffffffffffffffffffff169050813414610747576040517f08c379a000000000000000000000000000000000000000000000000000000000815260040161073e90613002565b60405180910390fd5b338360020160006101000a81548173ffffffffffffffffffffffffffffffffffffffff021916908373ffffffffffffffffffffffffffffffffffffffff160217905550600a600081548092919061079d90613051565b91905055506107d18360010160009054906101000a900473ffffffffffffffffffffffffffffffffffffffff163386611684565b60006064600854846107e39190613099565b6107ed919061310a565b9050600760009054906101000a900473ffffffffffffffffffffffffffffffffffffffff1673ffffffffffffffffffffffffffffffffffffffff166108fc829081150290604051600060405180830381858888f19350505050158015610857573d6000803e3d6000fd5b508173ffffffffffffffffffffffffffffffffffffffff166108fc823461087e919061313b565b9081150290604051600060405180830381858888f193505050501580156108a9573d6000803e3d6000fd5b505050505050565b600073ffffffffffffffffffffffffffffffffffffffff168273ffffffffffffffffffffffffffffffffffffffff16036109235760006040517f64a0ae9200000000000000000000000000000000000000000000000000000000815260040161091a91906128d4565b60405180910390fd5b6000610937838361093261166a565b6117f1565b90508373ffffffffffffffffffffffffffffffffffffffff168173ffffffffffffffffffffffffffffffffffffffff16146109ad578382826040517f64283d7b0000000000000000000000000000000000000000000000000000000081526004016109a49392919061316f565b60405180910390fd5b50505050565b6109ce83838360405180602001604052806000815250610ea6565b505050565b6109db61265b565b600b6000838152602001908152602001600020604051806080016040529081600082015481526020016001820160009054906101000a900473ffffffffffffffffffffffffffffffffffffffff1673ffffffffffffffffffffffffffffffffffffffff1673ffffffffffffffffffffffffffffffffffffffff1681526020016002820160009054906101000a900473ffffffffffffffffffffffffffffffffffffffff1673ffffffffffffffffffffffffffffffffffffffff1673ffffffffffffffffffffffffffffffffffffffff1681526020016003820154815250509050919050565b6000610acb826115a5565b9050919050565b600760009054906101000a900473ffffffffffffffffffffffffffffffffffffffff1681565b60008073ffffffffffffffffffffffffffffffffffffffff168273ffffffffffffffffffffffffffffffffffffffff1603610b6b5760006040517f89c62b64000000000000000000000000000000000000000000000000000000008152600401610b6291906128d4565b60405180910390fd5b600360008373ffffffffffffffffffffffffffffffffffffffff1673ffffffffffffffffffffffffffffffffffffffff168152602001908152602001600020549050919050565b600760009054906101000a900473ffffffffffffffffffffffffffffffffffffffff1673ffffffffffffffffffffffffffffffffffffffff163373ffffffffffffffffffffffffffffffffffffffff1614610c42576040517f08c379a0000000000000000000000000000000000000000000000000000000008152600401610c3990613218565b60405180910390fd5b8060088190555050565b60085481565b60606000600954905060008167ffffffffffffffff811115610c7757610c76612c6b565b5b604051908082528060200260200182016040528015610cb057816020015b610c9d61265b565b815260200190600190039081610c955790505b5090506000805b83811015610df4576000600182610cce9190613238565b90506000600b6000838152602001908152602001600020905080604051806080016040529081600082015481526020016001820160009054906101000a900473ffffffffffffffffffffffffffffffffffffffff1673ffffffffffffffffffffffffffffffffffffffff1673ffffffffffffffffffffffffffffffffffffffff1681526020016002820160009054906101000a900473ffffffffffffffffffffffffffffffffffffffff1673ffffffffffffffffffffffffffffffffffffffff1673ffffffffffffffffffffffffffffffffffffffff168152602001600382015481525050858581518110610dc657610dc561326c565b5b60200260200101819052508380610ddc90613051565b94505050508080610dec90613051565b915050610cb7565b5081935050505090565b606060018054610e0d90612f85565b80601f0160208091040260200160405190810160405280929190818152602001828054610e3990612f85565b8015610e865780601f10610e5b57610100808354040283529160200191610e86565b820191906000526020600020905b815481529060010190602001808311610e6957829003601f168201915b5050505050905090565b610ea2610e9b61166a565b8383611a0b565b5050565b610eb18484846108b1565b610ebd84848484611b7a565b50505050565b6000600854905090565b6000808211610f11576040517f08c379a0000000000000000000000000000000000000000000000000000000008152600401610f08906132e7565b60405180910390fd5b60096000815480929190610f2490613051565b919050555060006009549050610f3a3382611d31565b610f448185611d4f565b610f4e8184611dab565b8091505092915050565b6060610f63826115a5565b506000600660008481526020019081526020016000208054610f8490612f85565b80601f0160208091040260200160405190810160405280929190818152602001828054610fb090612f85565b8015610ffd5780601f10610fd257610100808354040283529160200191610ffd565b820191906000526020600020905b815481529060010190602001808311610fe057829003601f168201915b50505050509050600061100e611eb4565b90506000815103611023578192505050611066565b600082511115611058578082604051602001611040929190613343565b60405160208183030381529060405292505050611066565b61106184611ecb565b925050505b919050565b6000600954905090565b6000600560008473ffffffffffffffffffffffffffffffffffffffff1673ffffffffffffffffffffffffffffffffffffffff16815260200190815260200160002060008373ffffffffffffffffffffffffffffffffffffffff1673ffffffffffffffffffffffffffffffffffffffff16815260200190815260200160002060009054906101000a900460ff16905092915050565b60606000600954905060008060005b83811015611230573373ffffffffffffffffffffffffffffffffffffffff16600b60006001846111489190613238565b815260200190815260200160002060010160009054906101000a900473ffffffffffffffffffffffffffffffffffffffff1673ffffffffffffffffffffffffffffffffffffffff16148061120957503373ffffffffffffffffffffffffffffffffffffffff16600b60006001846111bf9190613238565b815260200190815260200160002060020160009054906101000a900473ffffffffffffffffffffffffffffffffffffffff1673ffffffffffffffffffffffffffffffffffffffff16145b1561121d57828061121990613051565b9350505b808061122890613051565b915050611118565b5060008267ffffffffffffffff81111561124d5761124c612c6b565b5b60405190808252806020026020018201604052801561128657816020015b61127361265b565b81526020019060019003908161126b5790505b50905060005b848110156114b8573373ffffffffffffffffffffffffffffffffffffffff16600b60006001846112bc9190613238565b815260200190815260200160002060010160009054906101000a900473ffffffffffffffffffffffffffffffffffffffff1673ffffffffffffffffffffffffffffffffffffffff16148061137d57503373ffffffffffffffffffffffffffffffffffffffff16600b60006001846113339190613238565b815260200190815260200160002060020160009054906101000a900473ffffffffffffffffffffffffffffffffffffffff1673ffffffffffffffffffffffffffffffffffffffff16145b156114a55760006001826113919190613238565b90506000600b6000838152602001908152602001600020905080604051806080016040529081600082015481526020016001820160009054906101000a900473ffffffffffffffffffffffffffffffffffffffff1673ffffffffffffffffffffffffffffffffffffffff1673ffffffffffffffffffffffffffffffffffffffff1681526020016002820160009054906101000a900473ffffffffffffffffffffffffffffffffffffffff1673ffffffffffffffffffffffffffffffffffffffff1673ffffffffffffffffffffffffffffffffffffffff1681526020016003820154815250508486815181106114895761148861326c565b5b6020026020010181905250848061149f90613051565b95505050505b80806114b090613051565b91505061128c565b508094505050505090565b60007f80ac58cd000000000000000000000000000000000000000000000000000000007bffffffffffffffffffffffffffffffffffffffffffffffffffffffff1916827bffffffffffffffffffffffffffffffffffffffffffffffffffffffff1916148061158e57507f5b5e139f000000000000000000000000000000000000000000000000000000007bffffffffffffffffffffffffffffffffffffffffffffffffffffffff1916827bffffffffffffffffffffffffffffffffffffffffffffffffffffffff1916145b8061159e575061159d82611f34565b5b9050919050565b6000806115b183611f9e565b9050600073ffffffffffffffffffffffffffffffffffffffff168173ffffffffffffffffffffffffffffffffffffffff160361162457826040517f7e27328900000000000000000000000000000000000000000000000000000000815260040161161b9190612ab4565b60405180910390fd5b80915050919050565b60006004600083815260200190815260200160002060009054906101000a900473ffffffffffffffffffffffffffffffffffffffff169050919050565b600033905090565b61167f8383836001611fdb565b505050565b600073ffffffffffffffffffffffffffffffffffffffff168273ffffffffffffffffffffffffffffffffffffffff16036116f65760006040517f64a0ae920000000000000000000000000000000000000000000000000000000081526004016116ed91906128d4565b60405180910390fd5b6000611704838360006117f1565b9050600073ffffffffffffffffffffffffffffffffffffffff168173ffffffffffffffffffffffffffffffffffffffff160361177757816040517f7e27328900000000000000000000000000000000000000000000000000000000815260040161176e9190612ab4565b60405180910390fd5b8373ffffffffffffffffffffffffffffffffffffffff168173ffffffffffffffffffffffffffffffffffffffff16146117eb578382826040517f64283d7b0000000000000000000000000000000000000000000000000000000081526004016117e29392919061316f565b60405180910390fd5b50505050565b6000806117fd84611f9e565b9050600073ffffffffffffffffffffffffffffffffffffffff168373ffffffffffffffffffffffffffffffffffffffff161461183f5761183e8184866121a0565b5b600073ffffffffffffffffffffffffffffffffffffffff168173ffffffffffffffffffffffffffffffffffffffff16146118d057611881600085600080611fdb565b6001600360008373ffffffffffffffffffffffffffffffffffffffff1673ffffffffffffffffffffffffffffffffffffffff168152602001908152602001600020600082825403925050819055505b600073ffffffffffffffffffffffffffffffffffffffff168573ffffffffffffffffffffffffffffffffffffffff1614611953576001600360008773ffffffffffffffffffffffffffffffffffffffff1673ffffffffffffffffffffffffffffffffffffffff168152602001908152602001600020600082825401925050819055505b846002600086815260200190815260200160002060006101000a81548173ffffffffffffffffffffffffffffffffffffffff021916908373ffffffffffffffffffffffffffffffffffffffff160217905550838573ffffffffffffffffffffffffffffffffffffffff168273ffffffffffffffffffffffffffffffffffffffff167fddf252ad1be2c89b69c2b068fc378daa952ba7f163c4a11628f55a4df523b3ef60405160405180910390a4809150509392505050565b600073ffffffffffffffffffffffffffffffffffffffff168273ffffffffffffffffffffffffffffffffffffffff1603611a7c57816040517f5b08ba18000000000000000000000000000000000000000000000000000000008152600401611a7391906128d4565b60405180910390fd5b80600560008573ffffffffffffffffffffffffffffffffffffffff1673ffffffffffffffffffffffffffffffffffffffff16815260200190815260200160002060008473ffffffffffffffffffffffffffffffffffffffff1673ffffffffffffffffffffffffffffffffffffffff16815260200190815260200160002060006101000a81548160ff0219169083151502179055508173ffffffffffffffffffffffffffffffffffffffff168373ffffffffffffffffffffffffffffffffffffffff167f17307eab39ab6107e8899845ad3d59bd9653f200f220920489ca2b5937696c3183604051611b6d9190612763565b60405180910390a3505050565b60008373ffffffffffffffffffffffffffffffffffffffff163b1115611d2b578273ffffffffffffffffffffffffffffffffffffffff1663150b7a02611bbe61166a565b8685856040518563ffffffff1660e01b8152600401611be094939291906133bc565b6020604051808303816000875af1925050508015611c1c57506040513d601f19601f82011682018060405250810190611c19919061341d565b60015b611ca0573d8060008114611c4c576040519150601f19603f3d011682016040523d82523d6000602084013e611c51565b606091505b506000815103611c9857836040517f64a0ae92000000000000000000000000000000000000000000000000000000008152600401611c8f91906128d4565b60405180910390fd5b805181602001fd5b63150b7a0260e01b7bffffffffffffffffffffffffffffffffffffffffffffffffffffffff1916817bffffffffffffffffffffffffffffffffffffffffffffffffffffffff191614611d2957836040517f64a0ae92000000000000000000000000000000000000000000000000000000008152600401611d2091906128d4565b60405180910390fd5b505b50505050565b611d4b828260405180602001604052806000815250612264565b5050565b80600660008481526020019081526020016000209081611d6f91906135f6565b507ff8e1a15aba9398e019f0b49df1a4fde98ee17ae345cb5f6b5e2c27f5033e8ce782604051611d9f9190612ab4565b60405180910390a15050565b60405180608001604052808381526020013373ffffffffffffffffffffffffffffffffffffffff1681526020013373ffffffffffffffffffffffffffffffffffffffff16815260200182815250600b60008481526020019081526020016000206000820151816000015560208201518160010160006101000a81548173ffffffffffffffffffffffffffffffffffffffff021916908373ffffffffffffffffffffffffffffffffffffffff16021790555060408201518160020160006101000a81548173ffffffffffffffffffffffffffffffffffffffff021916908373ffffffffffffffffffffffffffffffffffffffff160217905550606082015181600301559050505050565b606060405180602001604052806000815250905090565b6060611ed6826115a5565b506000611ee1611eb4565b90506000815111611f015760405180602001604052806000815250611f2c565b80611f0b84612280565b604051602001611f1c929190613343565b6040516020818303038152906040525b915050919050565b60007f01ffc9a7000000000000000000000000000000000000000000000000000000007bffffffffffffffffffffffffffffffffffffffffffffffffffffffff1916827bffffffffffffffffffffffffffffffffffffffffffffffffffffffff1916149050919050565b60006002600083815260200190815260200160002060009054906101000a900473ffffffffffffffffffffffffffffffffffffffff169050919050565b80806120145750600073ffffffffffffffffffffffffffffffffffffffff168273ffffffffffffffffffffffffffffffffffffffff1614155b15612148576000612024846115a5565b9050600073ffffffffffffffffffffffffffffffffffffffff168373ffffffffffffffffffffffffffffffffffffffff161415801561208f57508273ffffffffffffffffffffffffffffffffffffffff168173ffffffffffffffffffffffffffffffffffffffff1614155b80156120a257506120a08184611075565b155b156120e457826040517fa9fbf51f0000000000000000000000000000000000000000000000000000000081526004016120db91906128d4565b60405180910390fd5b811561214657838573ffffffffffffffffffffffffffffffffffffffff168273ffffffffffffffffffffffffffffffffffffffff167f8c5be1e5ebec7d5bd14f71427d1e84f3dd0314c0f7b2291e5b200ac8c7c3b92560405160405180910390a45b505b836004600085815260200190815260200160002060006101000a81548173ffffffffffffffffffffffffffffffffffffffff021916908373ffffffffffffffffffffffffffffffffffffffff16021790555050505050565b6121ab83838361234e565b61225f57600073ffffffffffffffffffffffffffffffffffffffff168373ffffffffffffffffffffffffffffffffffffffff160361222057806040517f7e2732890000000000000000000000000000000000000000000000000000000081526004016122179190612ab4565b60405180910390fd5b81816040517f177e802f0000000000000000000000000000000000000000000000000000000081526004016122569291906136c8565b60405180910390fd5b505050565b61226e838361240f565b61227b6000848484611b7a565b505050565b60606000600161228f84612508565b01905060008167ffffffffffffffff8111156122ae576122ad612c6b565b5b6040519080825280601f01601f1916602001820160405280156122e05781602001600182028036833780820191505090505b509050600082602001820190505b600115612343578080600190039150507f3031323334353637383961626364656600000000000000000000000000000000600a86061a8153600a8581612337576123366130db565b5b049450600085036122ee575b819350505050919050565b60008073ffffffffffffffffffffffffffffffffffffffff168373ffffffffffffffffffffffffffffffffffffffff161415801561240657508273ffffffffffffffffffffffffffffffffffffffff168473ffffffffffffffffffffffffffffffffffffffff1614806123c757506123c68484611075565b5b8061240557508273ffffffffffffffffffffffffffffffffffffffff166123ed8361162d565b73ffffffffffffffffffffffffffffffffffffffff16145b5b90509392505050565b600073ffffffffffffffffffffffffffffffffffffffff168273ffffffffffffffffffffffffffffffffffffffff16036124815760006040517f64a0ae9200000000000000000000000000000000000000000000000000000000815260040161247891906128d4565b60405180910390fd5b600061248f838360006117f1565b9050600073ffffffffffffffffffffffffffffffffffffffff168173ffffffffffffffffffffffffffffffffffffffff16146125035760006040517f73c6ac6e0000000000000000000000000000000000000000000000000000000081526004016124fa91906128d4565b60405180910390fd5b505050565b600080600090507a184f03e93ff9f4daa797ed6e38ed64bf6a1f0100000000000000008310612566577a184f03e93ff9f4daa797ed6e38ed64bf6a1f010000000000000000838161255c5761255b6130db565b5b0492506040810190505b6d04ee2d6d415b85acef810000000083106125a3576d04ee2d6d415b85acef81000000008381612599576125986130db565b5b0492506020810190505b662386f26fc1000083106125d257662386f26fc1000083816125c8576125c76130db565b5b0492506010810190505b6305f5e10083106125fb576305f5e10083816125f1576125f06130db565b5b0492506008810190505b6127108310612620576127108381612616576126156130db565b5b0492506004810190505b606483106126435760648381612639576126386130db565b5b0492506002810190505b600a8310612652576001810190505b80915050919050565b604051806080016040528060008152602001600073ffffffffffffffffffffffffffffffffffffffff168152602001600073ffffffffffffffffffffffffffffffffffffffff168152602001600081525090565b6000604051905090565b600080fd5b600080fd5b60007fffffffff0000000000000000000000000000000000000000000000000000000082169050919050565b6126f8816126c3565b811461270357600080fd5b50565b600081359050612715816126ef565b92915050565b600060208284031215612731576127306126b9565b5b600061273f84828501612706565b91505092915050565b60008115159050919050565b61275d81612748565b82525050565b60006020820190506127786000830184612754565b92915050565b600081519050919050565b600082825260208201905092915050565b60005b838110156127b857808201518184015260208101905061279d565b60008484015250505050565b6000601f19601f8301169050919050565b60006127e08261277e565b6127ea8185612789565b93506127fa81856020860161279a565b612803816127c4565b840191505092915050565b6000602082019050818103600083015261282881846127d5565b905092915050565b6000819050919050565b61284381612830565b811461284e57600080fd5b50565b6000813590506128608161283a565b92915050565b60006020828403121561287c5761287b6126b9565b5b600061288a84828501612851565b91505092915050565b600073ffffffffffffffffffffffffffffffffffffffff82169050919050565b60006128be82612893565b9050919050565b6128ce816128b3565b82525050565b60006020820190506128e960008301846128c5565b92915050565b6128f8816128b3565b811461290357600080fd5b50565b600081359050612915816128ef565b92915050565b60008060408385031215612932576129316126b9565b5b600061294085828601612906565b925050602061295185828601612851565b9150509250929050565b600080600060608486031215612974576129736126b9565b5b600061298286828701612906565b935050602061299386828701612906565b92505060406129a486828701612851565b9150509250925092565b6129b781612830565b82525050565b60006129c882612893565b9050919050565b6129d8816129bd565b82525050565b6080820160008201516129f460008501826129ae565b506020820151612a0760208501826129cf565b506040820151612a1a60408501826129cf565b506060820151612a2d60608501826129ae565b50505050565b6000608082019050612a4860008301846129de565b92915050565b612a57816129bd565b82525050565b6000602082019050612a726000830184612a4e565b92915050565b600060208284031215612a8e57612a8d6126b9565b5b6000612a9c84828501612906565b91505092915050565b612aae81612830565b82525050565b6000602082019050612ac96000830184612aa5565b92915050565b600081519050919050565b600082825260208201905092915050565b6000819050602082019050919050565b608082016000820151612b1160008501826129ae565b506020820151612b2460208501826129cf565b506040820151612b3760408501826129cf565b506060820151612b4a60608501826129ae565b50505050565b6000612b5c8383612afb565b60808301905092915050565b6000602082019050919050565b6000612b8082612acf565b612b8a8185612ada565b9350612b9583612aeb565b8060005b83811015612bc6578151612bad8882612b50565b9750612bb883612b68565b925050600181019050612b99565b5085935050505092915050565b60006020820190508181036000830152612bed8184612b75565b905092915050565b612bfe81612748565b8114612c0957600080fd5b50565b600081359050612c1b81612bf5565b92915050565b60008060408385031215612c3857612c376126b9565b5b6000612c4685828601612906565b9250506020612c5785828601612c0c565b9150509250929050565b600080fd5b600080fd5b7f4e487b7100000000000000000000000000000000000000000000000000000000600052604160045260246000fd5b612ca3826127c4565b810181811067ffffffffffffffff82111715612cc257612cc1612c6b565b5b80604052505050565b6000612cd56126af565b9050612ce18282612c9a565b919050565b600067ffffffffffffffff821115612d0157612d00612c6b565b5b612d0a826127c4565b9050602081019050919050565b82818337600083830152505050565b6000612d39612d3484612ce6565b612ccb565b905082815260208101848484011115612d5557612d54612c66565b5b612d60848285612d17565b509392505050565b600082601f830112612d7d57612d7c612c61565b5b8135612d8d848260208601612d26565b91505092915050565b60008060008060808587031215612db057612daf6126b9565b5b6000612dbe87828801612906565b9450506020612dcf87828801612906565b9350506040612de087828801612851565b925050606085013567ffffffffffffffff811115612e0157612e006126be565b5b612e0d87828801612d68565b91505092959194509250565b600067ffffffffffffffff821115612e3457612e33612c6b565b5b612e3d826127c4565b9050602081019050919050565b6000612e5d612e5884612e19565b612ccb565b905082815260208101848484011115612e7957612e78612c66565b5b612e84848285612d17565b509392505050565b600082601f830112612ea157612ea0612c61565b5b8135612eb1848260208601612e4a565b91505092915050565b60008060408385031215612ed157612ed06126b9565b5b600083013567ffffffffffffffff811115612eef57612eee6126be565b5b612efb85828601612e8c565b9250506020612f0c85828601612851565b9150509250929050565b60008060408385031215612f2d57612f2c6126b9565b5b6000612f3b85828601612906565b9250506020612f4c85828601612906565b9150509250929050565b7f4e487b7100000000000000000000000000000000000000000000000000000000600052602260045260246000fd5b60006002820490506001821680612f9d57607f821691505b602082108103612fb057612faf612f56565b5b50919050565b7f496e636f7272656374207061796d656e7420616d6f756e740000000000000000600082015250565b6000612fec601883612789565b9150612ff782612fb6565b602082019050919050565b6000602082019050818103600083015261301b81612fdf565b9050919050565b7f4e487b7100000000000000000000000000000000000000000000000000000000600052601160045260246000fd5b600061305c82612830565b91507fffffffffffffffffffffffffffffffffffffffffffffffffffffffffffffffff820361308e5761308d613022565b5b600182019050919050565b60006130a482612830565b91506130af83612830565b92508282026130bd81612830565b915082820484148315176130d4576130d3613022565b5b5092915050565b7f4e487b7100000000000000000000000000000000000000000000000000000000600052601260045260246000fd5b600061311582612830565b915061312083612830565b9250826131305761312f6130db565b5b828204905092915050565b600061314682612830565b915061315183612830565b925082820390508181111561316957613168613022565b5b92915050565b600060608201905061318460008301866128c5565b6131916020830185612aa5565b61319e60408301846128c5565b949350505050565b7f43616c6c6572206973206e6f7420746865206d61726b6574706c616365206f7760008201527f6e65720000000000000000000000000000000000000000000000000000000000602082015250565b6000613202602383612789565b915061320d826131a6565b604082019050919050565b60006020820190508181036000830152613231816131f5565b9050919050565b600061324382612830565b915061324e83612830565b925082820190508082111561326657613265613022565b5b92915050565b7f4e487b7100000000000000000000000000000000000000000000000000000000600052603260045260246000fd5b7f5072696365206d7573742062652067726561746572207468616e207a65726f00600082015250565b60006132d1601f83612789565b91506132dc8261329b565b602082019050919050565b60006020820190508181036000830152613300816132c4565b9050919050565b600081905092915050565b600061331d8261277e565b6133278185613307565b935061333781856020860161279a565b80840191505092915050565b600061334f8285613312565b915061335b8284613312565b91508190509392505050565b600081519050919050565b600082825260208201905092915050565b600061338e82613367565b6133988185613372565b93506133a881856020860161279a565b6133b1816127c4565b840191505092915050565b60006080820190506133d160008301876128c5565b6133de60208301866128c5565b6133eb6040830185612aa5565b81810360608301526133fd8184613383565b905095945050505050565b600081519050613417816126ef565b92915050565b600060208284031215613433576134326126b9565b5b600061344184828501613408565b91505092915050565b60008190508160005260206000209050919050565b60006020601f8301049050919050565b600082821b905092915050565b6000600883026134ac7fffffffffffffffffffffffffffffffffffffffffffffffffffffffffffffffff8261346f565b6134b6868361346f565b95508019841693508086168417925050509392505050565b6000819050919050565b60006134f36134ee6134e984612830565b6134ce565b612830565b9050919050565b6000819050919050565b61350d836134d8565b613521613519826134fa565b84845461347c565b825550505050565b600090565b613536613529565b613541818484613504565b505050565b5b818110156135655761355a60008261352e565b600181019050613547565b5050565b601f8211156135aa5761357b8161344a565b6135848461345f565b81016020851015613593578190505b6135a761359f8561345f565b830182613546565b50505b505050565b600082821c905092915050565b60006135cd600019846008026135af565b1980831691505092915050565b60006135e683836135bc565b9150826002028217905092915050565b6135ff8261277e565b67ffffffffffffffff81111561361857613617612c6b565b5b6136228254612f85565b61362d828285613569565b600060209050601f831160018114613660576000841561364e578287015190505b61365885826135da565b8655506136c0565b601f19841661366e8661344a565b60005b8281101561369657848901518255600182019150602085019450602081019050613671565b868310156136b357848901516136af601f8916826135bc565b8355505b6001600288020188555050505b505050505050565b60006040820190506136dd60008301856128c5565b6136ea6020830184612aa5565b939250505056fea2646970667358221220cb7747357d6e2e7c910f39345e6dbb2d47824b64e292970821eda81b14e4129764736f6c63430008140033",
  "linkReferences": {},
  "deployedLinkReferences": {}
}